:10400000000003203584000031840000318400006A
:104010003184000031840000318400000000000081
:1040200000000000000000000000000031840000DB
:10403000318400000000000031840000B5840000DD
:10404000318400003184000031840000318400009C
:10405000318400003184000031840000318400008C
:104060003184000031840000CD65000031840000FF
:10407000A5830000AB830000B1830000B78300007C
:10408000BD830000C3830000C9830000CF8300000C
:10409000D5830000DB830000E1830000E78300009C
:1040A000ED830000F3830000F9830000FF8300002C
:1040B0003184000031840000318400002962000056
:1040C00029620000296200002962000029620000C4
:1040D000318400003184000031840000318400000C
:1040E00031840000318400003184000031840000FC
:1040F00000000000318400003184000031840000A1
:1041000031840000318400003184000031840000DB
:104110003184000031840000B9480000C548000027
:10412000C9480000CD4800003184000031840000FF
:104130003184000031840000F5600000016100005E
:104140002D61000005610000E5700000F1700000C5
:10415000F5700000F9700000318400003184000027
:10416000318400003184000031840000318400007B
:10417000318400003184000031840000318400006B
:104180006D73000073730000777300007B73000091
:104190000000000031840000318400003184000000
:1041A000318400003184000031840000318400003B
:1041B000318400003184000031840000318400002B
:1041C000318400003184000031840000318400001B
:1041D000318400003184000031840000318400000B
:1041E00031840000318400003184000031840000FB
:1041F00031840000000000003184000031840000A0
:1042000031840000318400003184000031840000DA
:1042100031840000318400003184000031840000CA
:1042200031840000318400003184000031840000BA
:1042300031840000318400003184000031840000AA
:10424000318400003184000031840000318400009A
:10425000318400003184000031840000318400008A
:104260003184000010B5054C237833B9044B13B1E9
:104270000448AFF300800123237010BDE007002045
:1042800000000000ACF4000008B5034B1BB103496B
:104290000348AFF3008008BD00000000E4070020E1
:1042A000ACF400007047000070B501218AB00B200B
:1042B0004D4C04F06DFB01210B2004F0ADFB237885
:1042C0006BB14A48494D4FF4165103F02FF8284678
:1042D00003F02DF818B9012004F028F9F7E74FF49E
:1042E0001651434802F0D7FA0321102004F0BEFB18
:1042F0000321112004F0BAFB642004F017F93D49B2
:104300003B4802F065FC3C49394802F061FC2378E7
:104310001BB13A49354803F00FF900210B2004F096
:104320007BFB0A2004F002F901210B2004F074FB4E
:104330000A2004F0FBF8324801F058FE237828B92F
:104340001BB13049294803F0F7F8FEE71BB12E49AD
:10435000264803F0F1F89FED2D0A294801F06CFC86
:10436000237828B91BB12A49204803F0E5F8FEE775
:104370005BB128491D4803F0D0F823782BB19FED9D
:10438000180B1A48022103F0F1F91D4800221721E9
:1043900001F0C2FD002220484FF47A6102F064F976
:1043A0001E4B02AA03F110061546186859681446F8
:1043B00003C40833B3422246F7D11B88238000236D
:1043C000CDF81A30CDF81E30CDF8223000931E22E1
:1043D00004232946124800F091FE0AB070BD00BFC8
:1043E0000000000000207B40FE130020F02200208F
:1043F000FC07002060E6000092E60000A3E6000053
:1044000038150020B9E60000D0E600000000D943CE
:10441000E4E60000F8E60000A81F0020E3E7000043
:104420000014002070B53C4E33780A2B88B060D160
:104430003A4C0023337023787BB13949394803F073
:104440006CF823784BB13849364803F066F8237886
:104450001BB13649334803F06FF80023009332490B
:1044600033480423962200F049FE237800284FD1D8
:104470001BB130492B4803F05FF896232E488DF886
:104480001E3000F07AFC0023CDE90333CDE901337F
:104490000DF11F03009329494FF47A7305460DF17E
:1044A0001E02234800F030FF237850B3D3B12449D3
:1044B0001C4803F032F810229DF81F10194803F031
:1044C0009BF82049174803F028F81C49154803F0C9
:1044D00033F81D49134803F020F812480A2269B244
:1044E00003F073F810489622002107F079FB0023AF
:1044F0003370642004F01AF8144802F05DF808B034
:1045000070BD002BEED01249064803F015F8E9E71C
:10451000002BE7D00F49F7E7841E0020FE13002090
:1045200006E70000F0220020851E002010E70000B2
:104530000014002030E70000381500206813002028
:104540003AE70000C6F100004EE70000A81F002077
:1045500054E70000A5E7000010B5044604F028F871
:10456000204610BD38B50F4C0F4D104B06220A21C6
:10457000204601F0E5FA2A460D49204606F0D4FD12
:1045800021460C4C0C48012200F0AEFD0B492046A0
:1045900002F0EEF92A4620460949BDE8384006F007
:1045A000C3BD00BF38150020000000207019002096
:1045B000A5420000FC07002000140020881B0020FA
:1045C000D567000000207047F8B505460E4617462F
:1045D0000024BC4207D02B68315D1B6828469847F1
:1045E00008B10134F5E72046F8BD7047D0F81C212A
:1045F000D0F818319A421DBFD0F81C31C018007E87
:104600004FF0FF307047D0F81831D0F81C01181A5D
:1046100048BF00F5807070472DE9F04100251E4627
:104620004FF47A730446C0E90153104B40F8183B2D
:104630008846174629464FF4807207F0D1FAC4F82D
:1046400018514FF48072C4F81C51294604F590703B
:1046500007F0C6FAC4F82052C4F81080C4F82452F7
:1046600027756675A5752046BDE8F0810CE8000049
:1046700070B504460C4900690C4E03F06BFB2069D1
:1046800003F088F9207D182505FB006393F90810D5
:1046900004F0ECF9607D05FB006595F90810BDE8B4
:1046A000704004F0E3B900BFA086010028EC0000D0
:1046B0000023C0F82032C0F82432012380F82812E9
:1046C00083757047D0F80031D0F804210133DBB294
:1046D0009A421EBFD0F800218154C0F800317047C3
:1046E00008B5837D6BB1D0F82032D0F82422013395
:1046F000DBB2934205D000F59070FFF7E3FF012095
:1047000008BD0020FCE7D0F80421D0F800319A421F
:104710001FBFD0F80431C25CD0F8043101331DBF93
:10472000DBB2C0F8043110464FF0FF307047F8B5E7
:10473000002204460D46827590F82812006903F0A5
:104740005CF9D0B104F59077D4F82002D4F8246253
:10475000861B48BF06F58076AEB138462669FFF75E
:10476000D2FFC1B2304603F085F90028ECD12069B0
:10477000032103F030F9032004E02069032103F052
:104780002AF90220F8BD2DB12069032103F023F995
:104790003046F7E72846F5E70121FFF7C8BF08B51F
:1047A0001830FFF7B0FF08BD70B50446006903F08C
:1047B00080F998B1206903F089F980B1206903F08C
:1047C00003F92069032103F006F9D4F83052002DD3
:1047D00033D10023C4F81831C4F81C3170BD2069EE
:1047E00003F07EF940B1206903F075F920B120692A
:1047F00003F07BF90028E1D0206903F071F910BBC8
:10480000206903F05EF90028E8D0206903F06DF913
:10481000002834D0D4F82032D4F824229B1A48BF80
:1048200003F580734BB304F59070FFF76CFFC1B2D2
:10483000206903F030F9A075D0E7236820461B6992
:104840009847A847C5E7206903F0BEF8206903210F
:1048500003F0C1F8206903F048F90028BED0002316
:10486000C4F82032C4F824320123A375D4F82C32C2
:10487000002BB3D0BDE870401847FF21D8E7D4F82B
:104880001831D4F81C2120690133DBB2934207D1DF
:1048900003F093F820690321BDE8704003F09BB852
:1048A00003F028F9014604F11800FFF70BFF206917
:1048B00003F08AF8EEE700000148FFF775BF00BF7C
:1048C00068160020FFF7F8BFFFF7F6BFFFF7F4BF49
:1048D0000249034816231522FFF79EBEC02200207E
:1048E000681600200278034B53F82230002283F828
:1048F00049207047F0180020F8B5044610300D46E6
:1049000017461E4601F050FC04F1240001F04CFC57
:104910000020C4E90E00C4E9100084F8480084F8BF
:10492000490060722DB90A4B0A4A0B48222107F050
:10493000B5F89DF8183063719DF81C30E3719DF84F
:10494000203025602771A67123722046F8BD00BF74
:1049500028E8000039E800008DE800001FB5044693
:1049600004AB006803E9060002F0D6FF9DF80D30A5
:10497000227AE17920680093002303F0C7F92068C8
:10498000029A9DF80C1002F0E5FF206804B0BDE823
:10499000104002F0B7BF10B50446006802F0A5FF52
:1049A0000023637210BD00004B1C10B509D0102904
:1049B00007D0EFF3108472B604DD0223837204B9CA
:1049C00062B610BD837A43F001038372064B18224E
:1049D00002FB0131012391F9162003FA02F2C368A8
:1049E0001343C360EBE700BF28EC000017B4837AE1
:1049F0006C4684E8060043B19A070DD5EFF31083A7
:104A0000B3FA83F35B09C37272B694E8060003B08D
:104A10005DF8044BFFF7A2BFDB0742BF014B828961
:104A2000DA60F2E700280040837A53B19A0703D591
:104A3000C37A33B162B67047DB0742BF014B82894C
:104A40001A61704700280040006802F070BF70478C
:104A50007047000008B5006803F058F80028A3BFAD
:104A60000C235843024B0020A8BF185808BD00BFB4
:104A7000E4E8000008B5006803F048F80028A3BF88
:104A8000044B0C2202FB00304FF0FF30A8BF4068FF
:104A900008BD00BFE4E8000008B5006803F036F880
:104AA0000028A3BF044B0C2202FB00304FF0FF3064
:104AB000A8BF806808BD00BFE4E800002DE9F04110
:104AC00000F1100686B00446304601F0C3FB002812
:104AD0007DD104F12407384601F0BCFB05460028CF
:104AE0006FD12046FFF7D8FFC1B2304601F0B0FCCD
:104AF0000221304601F0C4FC01223649DFF8D8809B
:104B0000304601F0A1FC237C204648F82340FFF703
:104B1000B1FFC1B2384601F09BFC0221384601F0DA
:104B2000AFFC94F82430204648F82340FFF792FF6A
:104B30004FF0010801462B462A46CDE90355CDE941
:104B400001580095304601F0B3FCA0632046FFF702
:104B500081FF2B4602462946CDE90355CDE9018563
:104B60000095384601F0A4FCE063B02007F000F89F
:104B7000206400B3303084F848806064226CA36BFA
:104B80002A4403F1100153F8040B42F8040B8B4242
:104B9000F9D11035302DF1D10023616CE26B19444D
:104BA00002F1100052F8045B41F8045B8242F9D133
:104BB0001033802BF1D194F8483043B9384601F0D6
:104BC00003FC304606B0BDE8F04101F0FDBB06B085
:104BD000BDE8F081E5480000F0180020437A70B588
:104BE00004461BB9012242724381C36094F84830E5
:104BF00013B92046FFF762FF0F4E2079182505FBF9
:104C0000006393F9081003F031FFA07905FB0063FE
:104C100093F9081003F02AFF607905FB006595F908
:104C2000081003F023FF054B204693E80600BDE87B
:104C30007040FFF793BE00BF28EC0000E81800208A
:104C40001FB5094B094A1A6000229A800223CDE958
:104C50000133182300930649064819231722FFF74A
:104C60004BFE05B05DF804FBE818002000093D008C
:104C7000B42200209C180020016002717047006877
:104C80000368DB681847006803681B6A18470068F8
:104C900003689B6A1847006803689B6B184737B521
:104CA00005460C4619460192FFF7F5FF2868019A60
:104CB00003685B69214603B0BDE8304018470068CF
:104CC00003681B6C1847006803685B6C1847006832
:104CD0000368DB6C1847006803681B6D18470068A1
:104CE00003685B6D1847006803689B6D18472DE9E2
:104CF000F843044600680A9F1E4603681B69DDE905
:104D0000089898470546C8B11EB12046FFF7E3FF53
:104D10003070B9F1000F04D02046FFF7D8FF89F8B2
:104D20000000B8F1000F04D02046FFF7D8FF88F844
:104D300000001FB12046FFF7D6FF38702846BDE8B7
:104D4000F8830120704700207047817170474171DE
:104D50007047C17270470173704741737047837B1E
:104D600023EA0202114381737047C0797047007AC9
:104D70007047407A7047807A7047008A00B2704767
:104D80000079704701717047408A80B27047808A0D
:104D900080B27047C08A80B2704710B5044623685D
:104DA0002046DB68984710B903F0DFFBF7E710BD3A
:104DB00010B504462379032B02D103F0D6FBF9E7A3
:104DC000012010BD70B504460E4603F07DFB05467C
:104DD00003F07AFB401BB04207D223682046DB6811
:104DE000984718B903F0C1FBF2E7002070BD70B519
:104DF00005460E4603F068FB044603F065FB001B06
:104E0000B04205D22B79032B04D103F0AEFBF4E7BB
:104E1000002070BD0120FCE7C36970B50446B3B142
:104E200003F052FB64260546236820461B6B984717
:104E300068B103F049FBE369401B984209D80A2195
:104E4000012003F0EAFA704303F070FBECE7012065
:104E500070BD0020FCE70000064A0260FF2100222E
:104E6000027141714282C172828281818273C282E7
:104E7000C261704734E9000070477047704770475F
:104E80007047417170478171704701717047000030
:104E900030B5034D056001714271837130BD00BFB3
:104EA000B4E900000148FFF7CFBD00BF9C18002007
:104EB0000148FFF7CCBD00BF9C1800200148FFF758
:104EC000C7BD00BF9C1800200379042B1ED0032B04
:104ED0001ED0022B1ED01449144A012B18BF1146B4
:104EE00082794379C2B1012A16D0022A14D003F183
:104EF000FF3CDCF1000343EB0C03032A00D000224B
:104F00008160027343730A48FFF768BE0949E7E707
:104F10000949E5E70949E3E703F1FF3CDCF1000358
:104F200043EB0C03ECE700BF80841E0040420F00FF
:104F30009C1800200024F40000127A0000093D00B3
:104F40000148FFF728BD00BF9C180020D0E90212DD
:104F50000148FFF74BBD00BF9C1800200148FFF738
:104F600063BD00BF9C1800200148FFF71DBD00BFB6
:104F70009C18002010B50446FFF78AFF034B2360FE
:104F8000034BA3600023A381204610BDE8E9000085
:104F900000093D00002302481A461946FFF7EABF00
:104FA00070190020012A05D1007A0B781B1A58428B
:104FB00058417047002070472DE9F04F264D0123DE
:104FC00087B02B706B7000230F46A97000930322EB
:104FD000FF232946064600F0DFFBD0BBFA238DF8FD
:104FE000173003F071FA06F1040900F57A68AA4651
:104FF00003F06AFAA8EB000000282ADD81B24846D7
:10500000FFF745FE10B30023CDE90233CDE90033AD
:105010000DF117025146304600F0C8FB0446A8B116
:105020009DF81730012B11D995F800B0BBF1020F94
:105030000CD14846FFF74FFE5B46024639463046E4
:1050400000F021FB204607B0BDE8F08F03F08DFA99
:10505000CEE70024F6E700BF80190020012A2DE9E1
:10506000F34107460E4614463BD94D79022D30D107
:1050700000F10408C97901914046FFF72CFE083C75
:105080002B4602460199384600F0FDFAE5B206F1DA
:10509000080300242246954204F10104E4B204D935
:1050A00013F8012B397A9142F4D104F108010E442E
:1050B000A54216D916F8011B01914046FFF70BFED9
:1050C00001340246019902233846E4B200F0DBFACB
:1050D000EEE7032D05D1897902B0BDE8F04100F07B
:1050E000BBBA02B0BDE8F08110B5044600F00CFB7D
:1050F000014B2360204610BD1CEA00002DE9F0475B
:10510000F92A9DF8209006460F4614461D4625D8DC
:10511000FF2B14D1DFF84880404600232246394651
:1051200000F8013B06F034FD621CCDF820902B46C0
:1051300041463046D2B2BDE8F04700F02DBB1946DB
:1051400000F046FA0028E5D1336829469B683046CE
:1051500098470028DED10220BDE8F0870120FBE758
:10516000801900202DE9F04F89B09846FA238DF878
:105170001A300DF11F0303930DF11E03DFF880A118
:1051800002930DF11D03019307AB00938946174667
:105190000DF11B030DF11A025146DDF848B005462A
:1051A00000F004FB5646044620B90024204609B00E
:1051B000BDE8F08F9DF81A3073B39AF800205ABBFF
:1051C000B8F1000F03D09DF81B2088F80020BBF138
:1051D000000F03D09DF81C208BF80020139A1AB101
:1051E00013999DF81D200A70149A1AB114999DF80C
:1051F0001E200A70159A1AB115999DF81F200A7081
:105200003A783D49013BDBB29A4288BF3B703A781D
:10521000484606F0BDFCC9E79DF81C20FF2AC4D112
:10522000012BC2D93278012ABFD12A7A9DF81B40BE
:10523000A242BAD0DF1E3149FFB200235FFA83F8E1
:10524000474506D911F8010B824203F10103F5D15C
:10525000ABE705F104094846FFF73DFD022302468E
:105260002146284600F00FFA95F8173193B1244CE7
:10527000A31BDBB29F420CD9E17805914846FFF7AA
:105280002AFD059902460223284600F0FCF9013464
:10529000EEE7B8462B687278DB681A4928469847CB
:1052A000044660B10223002433709DF81A209DF853
:1052B0001B3013490094284600F06EFA76E795F803
:1052C000163143457FF671AF95F81731002B3FF447
:1052D0006CAF9DF81A202B7A09493E440132F370D5
:1052E0009DF81B300190D2B200932846FF238DF821
:1052F0001A2000F01BFA59E78119002083190020B9
:1053000080190020821900202DE9F04F85B08046D9
:105310001C46DDE91056129F8946924603F0D4F8E8
:1053200008F1040B044403F0CFF8201A002814DD20
:1053300081B25846FFF7ABFC0028F4D00F9B0093D6
:10534000CDE902670E9B0195524649464046FFF75C
:1053500009FF18B903F009F9E5E7002005B0BDE839
:10536000F08F0000F0B585B0054604300E4603927C
:10537000FFF7B1FC039A07463146284600F03FF993
:105380000228044601D005281BD13178284600F0B8
:1053900063F972782B7A9A4213D00B4C0323237053
:1053A00033786370717802233A46284600F06BF92F
:1053B00000230093214673780222284600F0ECF97E
:1053C0000446204605B0F0BD8019002010B5044603
:1053D000FFF752FCC8230021E3810323A16021735E
:1053E00023744FF4807204F1110006F0F9FB20469B
:1053F00010BD1FB504460192FFF761FC2046002254
:105400008021FFF760FC2122019B8DF80F200DF118
:105410000F0101222046FFF742FC2046FFF733FC34
:1054200004B010BD2DE9F04F057B0135EDB2984673
:1054300087B004468946924605730023227C5F1C90
:105440009A42FFB26FD329462046FFF738FC012F5E
:105450000DBFC0228022402100212046FFF733FCEF
:105460004346524649462046FFF719FC2046FFF7BF
:105470000AFCB8F1FF0F58D0012F82BFA368013397
:10548000A36003F021F84FF4807183460020E68981
:1054900002F0C3FF704348BFFF3006EB20261BFA23
:1054A00086F60DF1170B03F00FF8301A002836DDE1
:1054B00081B22046FFF7EBFB70B30DF116030193A9
:1054C00000220DF115030093CDF808B005AB11468D
:1054D0002046FFF70CFCF8B19DF814209DF9173019
:1054E00042450ED194F804C09DF815108C4508D1A2
:1054F000002B08DA9DF81630AB420DD107B0BDE89D
:10550000F08F002B08DBA1189DF81630497C9942DA
:1055100002D12046FFF76DFF03F027F8C3E703F041
:1055200024F83B468AE70020E8E70120E6E72DE97A
:10553000F04389B0CDE90421DDE91098129F0446BB
:105540001E46FFF79CFBDDE9042120B90025284613
:1055500009B0BDE8F0830DF11F0302930DF11E03A6
:1055600001930DF11D030093204607ABFFF7BFFB2E
:1055700005460028EAD09DF91F30002BE6DB227992
:105580009DF81D309A4206D19DF81C209DF81E10F2
:105590002046FFF72EFF9DF81C209DF81E30144476
:1055A000617C9942D2D006B13270B9F1000F03D0BC
:1055B0009DF81D2089F80020B8F1000F01D088F86F
:1055C000003017B19DF81F203A706374BFE7704731
:1055D00010B50246002392F818418C4208D192F887
:1055E0001A412CB103EB430303F58C73184410BD2F
:1055F00001330A2B02F10302EDD10020F7E737B5A2
:105600000B78FF2B05460C4606D019460192FFF792
:10561000DFFF58B14378019A2146281DFFF702FFAA
:10562000002814BF0020052003B030BD0220FBE796
:1056300010B501EB41030446C1F1090203F58C707A
:1056400003F21B1102EB42022144204406F0A0FAAF
:10565000002384F8353110BD38B50A46002300F523
:105660008C7403EB4305D9B2655D954203D1FFF716
:10567000DFFF012038BD01330A2BF2D10020F9E70A
:105680000021FFF7D5BFF8B516461F4604460D4664
:10569000002300F58C7203EB4300115CA94205D195
:1056A000204480F8196180F81A71F8BD01330A2B83
:1056B000F1D1002304F58D7203EB4300115C19B99D
:1056C000204480F81851ECE701330A2BF4D120462E
:1056D000FFF7D6FF204604F11E0390F81A212AB9DD
:1056E00080F8185180F8196180F81A7103309842D7
:1056F000F3D1DAE700F11E03002280F81A2103300B
:105700009842FAD17047000010B504460430FFF704
:105710005DFE054B23604FF48F732046A4F81631CD
:10572000FFF7E8FF204610BD34EA00002DE9F347FB
:105730000446406801911F4603689DF828A09B69B4
:105740009DF82C901646984706F1050880451CD810
:10575000104D019985F801A00023AB7094F8153124
:10576000EB705A1C84F81521681D32462F7085F89D
:10577000049006F00DFA23685B685FFA88F2294608
:10578000204602B0BDE8F0471847012002B0BDE84E
:10579000F08700BF7A1A002013B59DF810400194DD
:1057A000047A0094FFF7C2FF02B010BD2DE9F04F5C
:1057B00087B01F46FF238DF813300DF117030293B6
:1057C000DFF8D0900DF1160301930DF1150300934E
:1057D00004468846164605AB0DF1130249460430CF
:1057E000DDE910BAFFF7A3FE054608B9002538E049
:1057F00023689DF813201B6849462046984799F86E
:105800000030227A9A4201D0FF2B2ED117B1214BC2
:105810005B783B70BBF1000F03D01E4B1B788BF8FD
:105820000030BAF1000F03D01A4BDB788AF8003051
:10583000129B1BB1174B129A1B791370139B1BB150
:10584000144B139A9B7813709DF8133032781249D9
:10585000053BDBB29A4288BF33703278404606F08F
:1058600097F9284607B0BDE8F08F99F802305A1C26
:1058700089F8022094F816219A42B7D994F8173182
:10588000002BB3D023689DF813205B68494620465F
:105890009847ABE77A1A00207F1A002072B6BFF350
:1058A0005F8FBFF34F8FBFF36F8F0120704710B52D
:1058B0000446006A0368DB68984794F82400FF28D0
:1058C00002D0012103F064F823682046DB6F98477B
:1058D000642002F02BFE012010BD90F8240000216E
:1058E00003F09AB890F82400012103F095B880F3F2
:1058F0001088BFF35F8FBFF34F8FBFF36F8FBFF37E
:105900005F8FBFF34F8FBFF36F8F704770B5044643
:105910000D461646FFF7A0FA034B2360266284F873
:105920002450204670BD00BF44EA000070B5044614
:105930000D46EFF31086FFF7B1FF00B3206A03684E
:105940001B6A9847236820469B6F9847206A036824
:1059500005F07F011B689847206A036800211B68D7
:10596000984723680546DB6F20469847206A0368FE
:105970005B6A98473046FFF7BAFF284670BD054678
:10598000F8E7F8B504460D461646EFF31087FFF723
:1059900085FF00B3206A03681B6A98472368204686
:1059A0009B6F9847206A036845F080011B68984701
:1059B0000546206A036831461B68984723682046DD
:1059C000DB6F9847206A03685B6A98473846FFF7A1
:1059D0008EFF2846F8BD0546F8E72DE9F341044659
:1059E00015461E46EFF31088FFF758FF01F07F01C0
:1059F0000027019100B3206A03681B6A9847236857
:105A000020469B6F9847206A019903681B68984756
:105A10002E440746B54207D0206A036800211B6860
:105A2000984705F8010BF5E723682046DB6F984798
:105A3000206A03685B6A98474046FFF758FF38467C
:105A400002B0BDE8F0812DE9F341044615461E463B
:105A5000EFF31088FFF722FF41F08001002701914A
:105A6000F8B1206A03681B6A9847236820469B6F39
:105A70009847206A019903681B6898472E44074697
:105A8000B54206D0206A15F8011B03681B689847C9
:105A9000F6E723682046DB6F9847206A03685B6A55
:105AA00098474046FFF723FF384602B0BDE8F08133
:105AB000006A03689B6A184701207047FB20704703
:105AC0000379052B10B5044610D003680521D3F8DF
:105AD00080309847072201212046FFF752FF80229D
:105AE00040212046FFF74DFF052323712379052B25
:105AF00002D102F03AFDF9E7207E10BD80F3108854
:105B0000BFF35F8FBFF34F8FBFF36F8FBFF35F8F15
:105B1000BFF34F8FBFF36F8F70470379012B10B521
:105B200004460BD003680121D3F880309847002247
:105B300001212046FFF725FF01232371012010BD1D
:105B400038B5044615461A46FFF7E0FE094B2360B8
:105B5000FF22002384F82720012284F8283184F8CA
:105B60002C3184F8265084F82B2184F825302046E7
:105B700038BD00BFDCEA000090F82830032B1BD9A9
:105B800090F82930C37190F82A30037290F82B30C6
:105B9000437290F82C308372837933B9C379427998
:105BA0009A4202D0C379FF2B06D1838A01339BB27C
:105BB0008382012380F8283170470346EFF3108079
:105BC00072B6BFF35F8FBFF34F8FBFF36F8F0022AB
:105BD00083F8282183F82820FFF790BF03682DE978
:105BE000F041DB6804460F4615469847064600B369
:105BF000E7B1DDB1EFF3108872B6BFF35F8FBFF38B
:105C00004F8FBFF36F8F94F828302A78033B93426D
:105C1000DEBF94F82830043B2B702A7804F12D0164
:105C2000384605F0B5FF4046FFF768FF2046FFF70E
:105C3000C4FF3046BDE8F08138B504462DED028B37
:105C400010EE100AB0EE408A05F0D8FB17A3D3E996
:105C5000002305F02BFC17A3D3E9002305F050FD2A
:105C600005F0FCFE06210546C0F307422046FFF77B
:105C700088FEC5F3072207212046FFF782FEEAB21D
:105C800008212046FFF77DFEDFED077AB4EEE78AB4
:105C9000BDEC028BF1EE10FAACBF01230023012012
:105CA00084F8293138BD00BF00C042440000000024
:105CB00080842E410000000080844E400379022B36
:105CC00010B504460BD003680221D3F88030984702
:105CD000012211462046FFF754FE0223237110BD16
:105CE00070B512210446FFF721FE1C21054620460F
:105CF000FFF71CFEFF22064612212046FFF741FE59
:105D00002379042B07D115F0A00F17D194F82B316C
:105D10000BB1700612D52379042B01D1690616D474
:105D20002379032B01D12A075DD42379052B5FD179
:105D30006B075DD505F0010525764CE0638A0133DC
:105D40009BB263822046BDE87040FFF736BF132147
:105D50002046FFF7EBFD102105462046FFF7E6FD44
:105D60000D2102462046FFF70CFE04F129022B46C6
:105D700000212046FFF731FE192184F828502046E3
:105D8000FFF7D4FD40B20028B8BF0330801084F87C
:105D90002A011A212046FFF7C9FD94F92A3100B2E1
:105DA000002B2082A9BF238A228A1BB21B01B2BF0B
:105DB0009B180F2293FBF2F31BB2238294F8293134
:105DC00073B1238A9D3B1BB223822046FFF7D4FE8A
:105DD00094F8283163B12046BDE87040FFF76EBFEC
:105DE000238AA43BEFE7E38A01339BB2E382F2E725
:105DF00070BD0000024B186808B1FFF771BF704713
:105E00007C1B0020024B586808B1FFF769BF704740
:105E10007C1B0020024B986808B1FFF761BF7047F8
:105E20007C1B00200379042B10B5044610D00368B6
:105E30000421D3F880309847052201212046FFF73E
:105E4000A0FD002240212046FFF79BFD0423237183
:105E500010BD0379032B10B5044605D0FFF7E2FF10
:105E600094F82801C0B210BD0020FCE70379032B91
:105E700010B5044610D003680321D3F8803098474A
:105E8000032201212046FFF77CFD402211462046D7
:105E9000FFF777FD0323237110BDFB2AF8B50446F5
:105EA0000F46154602D900263046F8BD03681B6A26
:105EB00098472046FFF702FF23682046DB6A984791
:105EC00006460028EFD000220D212046FFF759FD9D
:105ED000E27A00212046FFF754FD227B0021204674
:105EE000FFF74FFD627B00212046FFF74AFDA27BB2
:105EF00000212046FFF745FD2B463A46002120466B
:105F0000FFF7A1FD2A1DD2B222212046FFF739FD5D
:105F10002046FFF7ABFFC7E738B505460C4680F8CB
:105F2000252072B181F3040242F07002D2B209213D
:105F3000FFF727FD04224D212846BDE83840FFF732
:105F400020BD142910DC012910DD11290FDD0722E5
:105F50004D212846FFF715FD033C64B2A21E62F0F6
:105F60007F02D2B20921E7E71424F0E702240422D9
:105F70004D212846FFF705FDF0E738B50C460546EC
:105F80000A781D21FFF7FDFC62781E212846FFF7E5
:105F9000F8FCA27828462621BDE83840FFF7F1BC7E
:105FA000052913B50FD8094B01EB41015C185A5A6A
:105FB000A378ADF8042001A98DF80630FFF7DDFFC6
:105FC000012002B010BD0020FBE700BFC4EA0000C2
:105FD00038B50A0A05460C462021FFF7D2FCE2B28A
:105FE00028462121BDE83840FFF7CBBC70B50446F8
:105FF000FFF75DFC064610B90026304670BD94F8E8
:106000002650FF2D4FD029462046FFF751FD802214
:1060100001212046FFF7B5FC0A2002F087FA012192
:106020002046FFF783FC8028E6D194F82600FF285D
:1060300019D0002102F0ACFC94F82730FF2B07D1D7
:106040001F4A1378032BD7D8591C117084F82730B6
:1060500094F827301B4A42F823403BBB1A490422DC
:10606000284602F0A7F800220E212046FFF789FCFF
:1060700000220F212046FFF784FC2046FFF71EFE7A
:1060800000212046FFF78CFF08212046FFF7A0FFE4
:106090009FED0E0A2046FFF7CFFD00220D2120467E
:1060A000FFF73AFFA9E74FF0FF35B0E7012B02D128
:1060B00007490422D4E7022B9ED106490422CFE7E8
:1060C000791B00207C1B0020F55D00000000D943F7
:1060D000055E0000155E000070B504460D461646CC
:1060E00006F07EFC8642C1BF255400190023437090
:1060F00070BD0000014801F067BF00BF881B002091
:10610000FFF7F8BFFFF7F6BF07B501230022CDE97F
:106110000032044904481023112201F0F3FE03B0B9
:106120005DF804FBD8220020881B002008B5074832
:1061300001F04AFF054802F013F8054BC1B219708F
:10614000BDE8084003489622FFF7C6BF881B002021
:10615000841E0020851E0020074B196841B9EFF30B
:106160001080064A18B972B6BFF35F8F0121117013
:106170001A6801321A607047241F0020201F002077
:10618000074B1A6852B11A68013A1A601B682BB99A
:10619000044B1B7813B1BFF35F8F62B6704700BF2B
:1061A000241F0020201F0020FF2202704FF44071A6
:1061B00000224270428081808260C260026170472A
:1061C000184A02EB011110B491F84E10CCB211F044
:1061D00001010CD00178836802EB0112012182F8E1
:1061E0004E1004224270D3B15DF8044B184714F0EE
:1061F000020F08D00478C36802EB0412022482F86C
:106200004E404170EFE7610709D50178036902EB61
:106210000112042182F84E1007224270E3E75DF874
:10622000044B704700A0004108B5FFF795FF074BEE
:10623000198C074B01F01F0153F8210008B1FFF73B
:10624000BFFFBDE80840FFF79BBF00BF00A00041B3
:10625000281F00202DE9FF4103781F2B04464FF033
:10626000000040F29E80504E2070012223781F2BA8
:1062700007D8316802FA03F008420AD001332370CC
:10628000F4E701208DE003F00F03043B634418762C
:1062900044E0FFF761FF3768002F43D1434A444D84
:1062A0001369444843F4007313612B8867F3410377
:1062B0002B802B8800F5007843F001032B803946B2
:1062C00068634FF40072C5F8388005F089FC3946E0
:1062D0004FF40072404605F083FC374ADFF8E4C013
:1062E00010685168354F128940F602732B8001AB5C
:1062F00003C301AD1A80C02005224FF0010E35F90D
:10630000023B002BBFDB4FEA531803F01F013B4455
:106310000EFA01F147F8281083F80003013A12F051
:10632000FF02ECD122783068012101FA02F3034325
:106330003360234B43F8224004321D4B120198581E
:106340006FF34100985022780432120198580843A4
:10635000985020781A69814022EA01011961227857
:10636000043203EB021251796FF30101517122786B
:10637000207904321201995860F30E219950227845
:10638000607904321201995860F3155199502278BE
:106390000432120199586FF31B619950FFF7F0FE18
:1063A000002004B0BDE8F0811C1F00200008004060
:1063B00000A00041E003002060EB000000E100E0ED
:1063C000281F002000ED00E010B50446FFF7C4FED2
:1063D0006378062B58B228D023781F2B28D80122A7
:1063E0009A40144B19680A4222D0196821EA020225
:1063F0001A601B6893B9104A4FF00041C2F8801030
:10640000BFF34F8FBFF36F8F0C4A118863F34101C5
:1064100011800B4A116963F3492111612178094AFE
:10642000002042F82100FF222270FFF7A9FE10BDD4
:106430000220FAE71C1F002000E100E000A000415C
:1064400000080040281F0020023240F82210704748
:1064500038B5037801711F2B04460D460DD8FFF7A0
:106460007BFE2378054A04331B01D15865F30E21C6
:10647000D150BDE83840FFF783BE38BD00A00041D1
:1064800038B5037841711F2B04460D460DD8FFF730
:1064900063FE2378054A04331B01D15865F3155177
:1064A000D150BDE83840FFF76BBE38BD00A00041B9
:1064B0002DE9F74F054600789DF830B09DF83890EB
:1064C0000F9E9DF840701F2890468A469DF8342004
:1064D0001C4603D9002003B0BDE8F08F6B78062B73
:1064E000F8D0AB78002B5FD010210846019205F060
:1064F00037FB0028EED02B782E49019A01EB0311CF
:106500000B46D3F80CC0BCF1000F05D0D3F80CC07B
:10651000614501D0DB68F4E7D86001239B45AB708F
:1065200046D0BBF1020F08BF0423018841F00101EE
:10653000018001886FF34201018001886FF3C4017B
:10654000018001886BF309210180018862F38A21AF
:106550000180018869F3CB210180018867F30C3148
:106560000180018866F34F310180A1B24180C0F8FB
:1065700004A032B1426804FB03F107B1B1401144F9
:106580004160C0F80880B9F1000F05D05C43836812
:1065900007B9B4401C448460EB781BB12A78054BE2
:1065A00003EB0213C36096E7024B03EB0010B4E762
:1065B0000223BAE7E0030020034B9A68002AFCD1CB
:1065C000A5221A73704700BF00200040064B1A78BE
:1065D0006FF341021A709A68002AFCD19A7942F04E
:1065E00001029A71704700BF002000401B4BDA691E
:1065F00042F00402DA61DA696FF34102DA61184BA2
:106600004FF48062C3F88020BFF34F8FBFF36F8FCA
:106610000021C3F8802183F80A131A60114B99688E
:106620000029FCD14FF082431A7861F341021A70BD
:106630009A78C2F340019207FAD41A7861F3820281
:106640001A701A7842F002021A704FF08242937860
:106650009B07FCD401230370704700BF0014004067
:1066600000E100E000200040037870B505460C46CC
:1066700016460BB9FFF7BAFF4F4B00221A709A6803
:10668000002AFCD1B4F57A5F60DA002C5ED04B4A68
:10669000B2EB842F4FEA84235CDDA2F57A12934299
:1066A0005CDAA2F5FA1293425CDA454A93425DDC69
:1066B000A2F5FA2293425DDCA2F57A3293425DDCC8
:1066C000A2F5FA3293425DDC4FF60B0293425CDC9A
:1066D00047F60B3293425BDC43F68B429342CBBFCF
:1066E00001230023102408241946334B002E52D0D6
:1066F0009A7942F001029A715A7942F001025A7174
:106700005A780B2060F303025A705A7861F307122B
:106710005A709A786FF303029A701A7842F0040262
:106720001A709A68002AFCD12846FFF745FF224BD1
:106730001A7842F002021A709A68002AFCD14FF4CB
:106740007A70604300F50070801270BD0B234FF427
:106750008044C9E70A234FF40054C5E709234FF4E6
:106760008054C1E708234FF40064BDE707234FF4CA
:106770008064B9E706234FF40074B5E705234FF4AE
:106780008074B1E704238024AEE703234024ABE701
:1067900002232024A8E71A7942F001021A715A78DC
:1067A00061F303025A70197866F3820119709A68CE
:1067B000002AFCD1B8E700BF002000400CFE7C009E
:1067C0000B9E0F00014B00221A707047A81F00207B
:1067D00070470000064B13B503600024E1B201349A
:1067E000019000F06BFC402C0198F7D102B010BD75
:1067F00010EC000010B50446FFF7ECFF204601F056
:10680000D7FE204610BD70B50446D0F8CC090E4620
:1068100020B10368BDE870401B681847D4F8D00960
:1068200008BBD4F8D40958B3D4F8E029D4F8DC195B
:10683000FEF7DCF894F9D809002802DB002102F009
:10684000EBF8D4F8D4093146FEF7FEF894F9D809EC
:10685000002802DB012102F0DFF8D4F8D409FEF7AA
:10686000E3F801250DE094F8481AFDF721FFD4F86C
:10687000D009036831461B6898470128054602D0B5
:106880000025284670BD0146D4F8D009FDF74FFF1A
:106890000028C6D1F5E770B50446D0F8CC090D46FE
:1068A00010B10368DB699847D4F8D069A6B13046C7
:1068B000FDF7DEFE802D28BF1025E9B2D4F8D009FF
:1068C00084F8481AFDF7F4FED4F8D009FDF764FF08
:1068D000B0FA80F0400970BDD4F8D40998B1FEF741
:1068E0007DF994F9D809C4F8DC59002884F8E069E6
:1068F00084F8E16907DB012102F04AF894F9D8092C
:10690000012102F089F80A2001F010FE0120E2E7DF
:1069100000F66C21C0F8601B00F6E4210022C0F8EC
:10692000641B002180F8682BC0F8CC29C0F8D0295E
:10693000C0F8D42980F8C82980F85C2B428780F8F9
:106940003C20C287A0F8402080F84220C165016643
:1069500041668166C166016741678167C267A0F8C9
:10696000802080F882208164416400F06BB90000CF
:106970002DE9F041734B03600446002545608560B6
:1069800085818573142288460F30294605F028F941
:1069900014222946A4F8235084F8255004F1260037
:1069A00005F01EF945F65803A4F87C30582384F806
:1069B0007E304FF40062294604F1900005F010F992
:1069C000234604F500624FF47A71A3F89C1020333B
:1069D0009342FAD104F509635B4A1A6004F6940302
:1069E00000221A600021142204F6980005F0F8F83D
:1069F000564F1422002104F6AC0005F0F1F83F22B6
:106A0000002104F50C6005F0EBF80FCF002504F62B
:106A10000C16C4F80059C4F80459C4F808590FC634
:106A200097E80300502286E80300294604F6241064
:106A300005F0D6F8464BC4F82439464BC4F828393B
:106A4000454BC4F82C39454BC4F83039444BC4F895
:106A50003439444BC4F83839434BC4F83C39434BC0
:106A6000C4F84039424BC4F84439424BC4F8483961
:106A7000414BC4F84C39414BC4F85039404BC4F831
:106A80005439404BC4F858393F4BC4F85C393F4B3C
:106A9000C4F860393E4B3F4EC4F864393E4BC4F8ED
:106AA00068392946C4F86C693C2204F6741005F074
:106AB00097F83A4BC4F87439394BC4F87839394BE4
:106AC000C4F87C39384BC4F88039384BC4F8843961
:106AD000374BC4F88839374BC4F88C39364BC4F877
:106AE0009039364BC4F89439354BC4F89839354B46
:106AF000C4F89C39344B354AC4F8B039C4F8B439B9
:106B0000C4F8B839C4F8BC39C4F8C039C4F8C439B9
:106B1000FF232046C4F8A06984F8C95984F8D839FD
:106B2000C4F8DC29A4F8E05984F8693AA4F86A5A50
:106B300084F85C5BFFF7ECFEC4F8CC892046BDE826
:106B4000F08100BF10EC00009A991940F0EB0000B2
:106B50007AEB00007EEB000082EB000086EB000089
:106B60008AEB00008EEB000092EB000096EB000039
:106B70009AEB00009EEB0000A2EB0000A6EB0000E9
:106B8000AAEB0000AEEB0000B2EB0000B6EB000099
:106B9000BAEB000076EB0000BEEB0000C2EB000099
:106BA000C6EB0000CAEB0000CEEB0000D2EB000009
:106BB000D6EB0000DAEB0000DEEB0000E2EB0000B9
:106BC000E6EB0000EAEB00000094357740420F004E
:106BD00000F0B2BCF0B585B00546DDE90A070C4609
:106BE0009DF8301000263F2C2AD81AB105EB441C22
:106BF000CCF8A42062011BB105EB020CCCF8AC3040
:106C000010B1AB18C3F8A80017B1AB18A3F89C706B
:106C10002A4482F89E100A39092911D80023611CE0
:106C20001A46C9B22846CDE901660096FFF7D2FFA1
:106C300002340021E4B20F4608460B460A46D2E76A
:106C400005B0F0BD2DE9F04F0026C54F85B00546D3
:106C50003446F1B2CDE90144009400233A46284677
:106C60000136FFF7B7FF402EF3D100230226BD4FB8
:106C7000BD4A009419462846CDE90144FFF7AAFF12
:106C8000CDE9014600972846B84BB94ADFF8D493BE
:106C9000DFF8D4A3DFF8D4B30121FFF79BFFCDE9E0
:106CA0000146009731462846B04BB24AFFF792FFA3
:106CB000CDE9014600972846AC4BAF4A0321FFF7C8
:106CC00089FFCDE9014600972846AC4FA74BAC4A57
:106CD0000421FFF77FFF4FF00B0800972846CDE90E
:106CE0000144A84BA84A0521FFF774FFCDE90148EC
:106CF000CDF800902846A54BA54A0621FFF76AFF6C
:106D00000123CDE90143CDF8009028469F4BA14ACD
:106D10000921FFF75FFFCDF800A02846CDE9014427
:106D20009D4B9E4A0A21FFF755FFCDF800A0414632
:106D30004FF00C0A2846CDE90144974B984AFFF7DB
:106D400049FFCDE9014A51462846904B954ACDF876
:106D500000B0FFF73FFF00972846CDE90144924B72
:106D6000924A0F21FFF736FFCDE9014A2846874BAB
:106D70008F4ACDF800B01021FFF72CFFCDE9014874
:106D8000CDF800902846814B8A4ADFF8E4A213210F
:106D9000FFF720FF00972846CDE90144824B864A41
:106DA0001621FFF717FF00972846CDE90144754BE0
:106DB000824A1721FFF70EFF00972846CDE90144CC
:106DC000704B7F4A1821FFF705FF7E4B0093CDE9FA
:106DD000014628466D4B7C4A1921FFF7FBFE7B4B91
:106DE0000093CDE901462846684B794A794E1A212D
:106DF000FFF7F0FE784B0093CDE901482846634B3E
:106E0000764A1B21FFF7E6FECDE90148CDF8009058
:106E100028465E4B724ADFF85C92DFF85C821E21E6
:106E2000FFF7D8FE00972846CDE90144554B6D4A3F
:106E30006D4F2121FFF7CEFE00962846CDE9014493
:106E40006A4B6B4A2221FFF7C5FE00962846CDE922
:106E50000144684B684A694E2221FFF7BBFE684B2C
:106E600000932846CDE90144664B674A2421FFF789
:106E7000B1FE2846CDE90144644B654ACDF800A037
:106E80002521FFF7A7FE2846CDE90144614B624A60
:106E9000CDF800902621FFF79DFE2846CDE901445C
:106EA0005E4B5F4ACDF800802721FFF793FE28460E
:106EB000CDE901445B4B5C4A00972821FFF78AFE2D
:106EC0002846CDE90144594B594A00962921FFF73C
:106ED00081FE2846CDE901444C4B564ACDF800A02E
:106EE0002A21FFF777FE2846CDE90144494B524A53
:106EF000CDF800902B21FFF76DFE2846CDE9014427
:106F0000464B4E4ACDF800802C21FFF763FE284601
:106F1000CDE90144434B4A4A00972D21FFF75AFE21
:106F20002846CDE90144414B464A00962E21FFF701
:106F300051FE454B00932846CDE90144434B444A5A
:106F40002F21FFF747FE434B00932846CDE901442C
:106F5000414B424A3021FFF73DFE414B00938DE00B
:106F600007010020330100209B01002021010020A7
:106F7000710100207901002011000020BB010020D8
:106F800018000020540000207D0100205001002046
:106F900056010020040000202D0100209501002052
:106FA0003000002048010020670000204C01002034
:106FB0008101002085010020890100208D01002031
:106FC0002900002068010020A0010020AA01002063
:106FD0001F000020420100205F000020600100200F
:106FE0006401002091010020AB0000202701002057
:106FF000750100203C010020A5010020A000002018
:10700000990100205A0100200B000020B50100204A
:107010003E000020E1000020F9000020A500002033
:10702000D500002090000020C5000020780000203E
:10703000B10000204600002000010020DB000020FD
:10704000CD000020B9000020F3000020E700002060
:107050000B010020150100200F0100201B01002062
:107060005A00002087000020450100207000002009
:1070700025000020ED000020C10000202846CDE9B9
:107080000144094B094A3121FFF7A4FD084B009345
:10709000CDE90144074B084A32212846FFF79AFD03
:1070A00005B0BDE8F08F00BF380000207E00002052
:1070B0006D0000204E000020960000203F2910B5F2
:1070C0000ED800EB4114D4F8A0304BB1186804F08E
:1070D00057FDD4F8A00004F053FD0023C4F8A030FD
:1070E00010BD0000014800F06FBF00BFAC1F0020C2
:1070F000FFF7F8BFFFF7F6BFFFF7F4BF13B512496C
:107100001248134C00F068FB1249134800F064FB6E
:107110001249134800F060FB1249134800F05CFB71
:107120004FF08641114800F057FB1149204600F00E
:1071300053FB01230022CDE9003221460D4800F027
:10714000E1FE02B010BD00BF00300040A8220020C8
:10715000E422002000340040B4220020002001413D
:10716000C022002000400141CC220020D822002073
:1071700000040043AC1F002070B592B01E460C46C0
:1071800015460021422201A804F02AFD412E5CD9B7
:1071900040F60832ADF8042040F20222ADF8082093
:1071A00040F20942ADF80C20631C40F20122DBB230
:1071B0002748ADF8102005228DF815208DF81E30D7
:1071C000242208908DF8273040F224608DF8313069
:1071D0000A238DF81620ADF824001E4A1E488DF8AB
:1071E000343040F2075306920A9001220820ADF88D
:1071F0003830402302218DF81C208DF82C00042209
:107200004FF411608DF83C3007238DF807108DF88E
:1072100012108DF81F20ADF82E008DF830208DF85B
:1072200033108DF83B108DF83F3042220B4B8DF818
:10723000064001A928468DF80E408DF8264010938F
:1072400004F0A6FC422012B070BD0020FBE700BF96
:107250002402020520010524070580030580024061
:10726000A0F11000FFF788BF07B503688DF807107D
:107270005B6801220DF10701984703B05DF804FB3C
:1072800010B5002003F0EEFB044608B901F06DF9DB
:10729000204610BD002003F01FBC002003F060BC9E
:1072A00007B500210DF10702084603F0F9FB20B1F4
:1072B0009DF8070003B05DF804FB4FF0FF30F9E7DD
:1072C00007B501220DF10701002003F0D5FB20B125
:1072D0009DF8070003B05DF804FB4FF0FF30F9E7BD
:1072E00070B50E46144615465DB1002003F094FBC0
:1072F00038B12A463146002003F0E0FB2D1A06443F
:1073000001D1601B70BD01F030F9EDE700224FF4B0
:107310007A71C0E901214261034A02F10801303269
:1073200001600261704700BFE8EF0000704710B5D0
:10733000002003F071FB044608B901F016F920465D
:1073400010BD07B5084641B9694603F07BFB009BB9
:10735000B3F5966F01D100F085F803B05DF804FB3A
:107360000148FFF7D3BF00BFF0220020002001F04A
:1073700063BDFFF7FBBFFFF7F9BFFFF7F7BF0000E3
:1073800010B53149314C324B4B612046103103F07E
:10739000ABFD48F2220242F29A31204603F0FEFD94
:1073A000204603F0FEFD01211A2001F0F1FA01212F
:1073B0001A2001F031FB0121192001F0E9FA012125
:1073C000192001F029FB234B9A6942F001029A61CE
:1073D0001A6942F480621A611F4B93F8582042F0F8
:1073E000010283F8582093F83C2002F0F00283F861
:1073F0003C2093F83C2042F0070283F83C2093F8AD
:10740000592042F0010283F8592093F83C2002F001
:107410000F0283F83C2093F83C2042F0700283F87E
:107420003C200E4B4122C3F8A8200D4B002283F8CC
:10743000502383F8512383F8522383F85323BDE864
:10744000104003F0E5BC00BFF0220020D82B002044
:107450001CF000000008004000800041001C0040BB
:1074600000E100E0FA2000F08DB9000070B5174B84
:107470000D460FCB88B06C4684E80F0004A90A467D
:10748000002054F8043B1B68D3701E0A013096702C
:1074900004284FEA13464FEA1363567002F8043B80
:1074A000EFD10B480023AC1C11F8012B02F00F06A2
:1074B0001211865D825C24F8236025F823200133B5
:1074C000102BF1D1202008B070BD00BF2CF00000BF
:1074D0003CF00000F8B505460E4617460024BC42B5
:1074E00007D02B68315D1B682846984708B10134E6
:1074F000F5E72046F8BD13B50446084659B1019199
:1075000005F06EFA236801995B680246204602B0D6
:10751000BDE81040184702B010BD08B5FFF7EBFFFB
:1075200008BD03681B68184708B50249FFF7E3FF69
:1075300008BD00BF4CF0000038B50546FFF7DBFF83
:1075400004462846FFF7F0FF204438BDF0B58BB065
:1075500000238DF82430012A98BF0A2209ACB1FB20
:10756000F2F602FB1615EBB2092D0F4694BF30332D
:107570003733DBB2BA4204F8013D3146EFD9214638
:10758000FFF7B9FF0BB0F0BD2DE9F04107460E46FD
:1075900014462AB90368BDE8F0411B68C9B2184710
:1075A0000A2A0DD100290CDA2D21FFF7BAFF224655
:1075B000054671423846FFF7C9FF2844BDE8F0810F
:1075C000D2B2BDE8F041FFF7C1BF38B50546FFF7BD
:1075D000DBFF04462846FFF7A7FF204438BD10B460
:1075E0002AB902685DF8044B1268C9B210475DF809
:1075F000044BD2B2FFF7AABFFFF7F1BF2DE9F84F56
:1076000055EC104B06460F4610EE102A10EE100AED
:107610002B46294604F0E4F938B14B493046FFF7D0
:107620006AFF82465046BDE8F88F25F00049474B77
:107630004FF0FF322046494604F0D2F948B9434B97
:107640004FF0FF322046494604F0ACF908B94049F2
:10765000E4E7404B4FF060422046294604F0B6F97B
:1076600008B13D49DAE73D4B4FF0604220462946DC
:1076700004F08EF90028F4D1002200232046294688
:1076800004F086F9D0B12D213046FFF74AFF05F10D
:10769000004382461D463249DFF8CC904FF0000B84
:1076A00000204FF000085FFA8BF39F4208D9424652
:1076B0004B4604F025F80BF1010BF4E78246EAE7AC
:1076C00022462B4603F03CFD0D46044604F0C6F965
:1076D000804603F071FE02460B462046294603F021
:1076E0002DFD0A2204460D4630464146FFF72EFF87
:1076F000824427B11B493046FFF7FDFE8244DFF884
:1077000068904FF00008013FFFB2FF2F8AD04B4630
:1077100042462046294603F0C9FE0D46044604F0C1
:107720009DF90A22014683463046FFF70FFF824447
:10773000584603F041FE02460B462046294603F018
:10774000FDFC04460D46DEE74FF00000FFFFEF7F33
:1077500053F00000FFFFEF4157F00000FFFFEFC1C3
:107760000000E03F5BF000000000244038B5C9B2E3
:107770000546FFF743FF04462846FFF7D5FE2044A1
:1077800038BD0000014B1860704700BFC4010020E5
:107790000C4A1368591C13D0013B136083B972B6AD
:1077A000094B0A4A1A60BFF34F8F0949094BCA684F
:1077B00002F4E0621343CB60BFF34F8F00BFFDE7DD
:1077C000704700BFC4010020FCFF0220EF6916F0E3
:1077D00000ED00E00400FA0501220160027170472B
:1077E00070B506683568022B45EA827214BF4FF007
:1077F0008074002444EA0204346000689DF810405C
:10780000426801F0070141EA841114BF5B030023C1
:107810000A431343436070BD10B5036812051C682A
:1078200002F440120904224301F440310A431A6071
:107830000268536843F44033536010BD0268136814
:1078400043F00103136003681A68D107FCD4DA69B6
:10785000D207F9D470470268136843F0020313603B
:107860000268D3699B07FCD4704703681A7E12F044
:10787000010F03D11A7E12F0020FFAE77047036876
:1078800000225A8370470368187EC0F38000704757
:107890000368187EC00970470268137E43F08003B6
:1078A000137670470368588BC0F340007047026836
:1078B000538B43F00203538370470368187E00F034
:1078C000010070470368986AC0B2704703681A7E67
:1078D000D207FCD5996201207047036801229A758E
:1078E0007047036801221A7570470268136843F0F5
:1078F0000103136003681A68D107FCD4DA69D20760
:10790000F9D470470268136843F0020313600268F9
:10791000D3699B07FCD470470368DA69C2F340015E
:107920009207FAD41A6861F341021A60704703683B
:10793000996203681A7E5207FCD5986AC0B27047F4
:1079400080684900B0FBF1F080B208B1013880B224
:10795000C0B2704770B50B460568C3F3400603F02C
:10796000010329681B0743EA46730B432B6011464A
:107970000368FFF7E5FF187370BD0268136843F0F2
:107980000103136003681A68D107FCD4DA69D207CF
:10799000F9D470470268136843F002031360036868
:1079A000DA699207FCD45A8B012161F305125A83DC
:1079B0000268D3695B07FCD4704703681A685A6889
:1079C00042F480225A60704703681A685A686FF35D
:1079D00092425A60704703681A68C2F38202052A0D
:1079E0005A6801F0030161F311425A6004D1026840
:1079F000D3695B07FCD47047704730B50468638B6C
:107A0000C3F30113022B12D0638BC3F30113032BB7
:107A10002CD0638B9D0704D5638BC3F30113012B1B
:107A200024D1658B15F0300FC5F3011320D0636AA4
:107A300042EA4101C9B261F30A036362036842B9D1
:107A40001A7ED007FCD5588BC0F3800080F001006F
:107A50000BE01A7E9107C2F34000F4D41A7ED207DD
:107A6000F7D55A6842F440325A6030BD0020FCE736
:107A70001846FAE7036899620368187E10F001005F
:107A800003D15A8BD207F8D57047588BC0F38000CA
:107A900080F0010070470368996203681A7EC2F3A0
:107AA0008000520742BF588BC0F3800080F0010075
:107AB000704703681868C0F38200031F584258419A
:107AC00070470368187EC0F3800070470368187E13
:107AD00000F0010070470368588BC0F30010704736
:107AE0000368187EC0F3400070470368588BC0F3EA
:107AF000C000704703681A68C2F38202052A02D1E7
:107B00001A7E9207FCD5986AC0B270470368124A81
:107B1000934213D002F58062934211D00F4A9342F0
:107B200010D002F5005293420ED0B3F1864F0DD023
:107B30000B4A93420CD1052040B270470020FBE76E
:107B40000120F9E70220F7E70320F5E70420F3E737
:107B50004FF0FF30704700BF00300040002001416F
:107B600000040043052A30B51FD0244C09010C4401
:107B7000E3B12179224C203154F821506FF386155E
:107B800044F8215054F821506D06FBD403B1027122
:107B90001B4C6AB9402244F821200BB1194B836079
:107BA000174A52F821305B06FBD530BD6179E1E719
:107BB000012A06D1412244F82120002BF0D0124B9B
:107BC000EDE7022A06D1422244F82120002BE7D01B
:107BD0000E4BE4E7032A07D1432244F82120002B6F
:107BE000DED04FF40043DAE7042AD9D1442244F826
:107BF0002120002BD4D0064BD1E700BF60F000005D
:107C0000001C0040000E2707006CDC0200E1F505B7
:107C1000001BB7002DE9F3410546FFF777FF011E72
:107C20003DDB1022062312FB01331E4A1E4EDFF8F5
:107C30007CC01A440424C020012732F9028BB8F119
:107C4000000F1FFA88F324DB4FEA581E4FEA8E0E0E
:107C50000EF1604E0EF5614E03F01F03E04407FA8B
:107C600003F3CEF8803188F80003CEF80030013CF1
:107C700014F0FF04E1D12A79019101232846FFF78E
:107C800071FF2A790199234602B0BDE8F041FFF760
:107C900069BF03F00F03043B33441876E7E702B0F3
:107CA000BDE8F08160F0000000ED00E000E100E0E0
:107CB000F8B504460F4616461D46FFF7ABFF2046B3
:107CC000FFF7BCFDBB007103226803F01C0389B2FF
:107CD0000B43136023688422012F9A7513D1012E60
:107CE0000CBF10230823084A6B43B2FBF3F322684E
:107CF000918963F34F31918122689189C3F3CC0359
:107D000063F30C019181F8BD0060E316F8B50546F8
:107D10000C4617461E46FFF7E8FDFFF77BFF2404DD
:107D20009DF81820296804F4403444EA82743A0526
:107D300002F44012224342F00C020A602B6806F063
:107D4000070646F400365E602A68D3695B07FCD4F8
:107D5000F8BD000038B505460C46FFF75BFF284626
:107D6000FFF70BFE2B6814221A602A68054BD168B6
:107D70006400B3FBF4F3013BDBB263F30701D160B2
:107D800038BD00BF006CDC0201207047036840F280
:107D900013421B6A1847D0F87821D0F874319A4200
:107DA0001DBFD0F87831C018007D4FF0FF3070470C
:107DB00010B504460069FFF741FD0023C4F8743193
:107DC000C4F87831C4F8DC32C4F8E03210BD01F4F4
:107DD0007061B1F5007F08D0B1F5407F07D0B1F5F3
:107DE000807F14BF002005207047062070470720C1
:107DF000704701F00F01012904D0022914BF0220AD
:107E000001207047002070472DE9F3410446334EAE
:107E100090F8E402182707FB0063884693F90810DE
:107E2000154600F023FE94F8E50207FB006393F982
:107E3000081000F01BFE94F8E732022B09D194F8E9
:107E4000F802FF2805D007FB006797F9081000F03B
:107E50000DFE94F8E802FF2817D0012100F098FDEC
:107E600094F8E82218235343F118F2561C4B496842
:107E7000D2011344C4F8EC321A4B134401228A4055
:107E8000C4F8F032C4F8F4221A60012243461146C5
:107E90002069FFF70DFF29462046FFF798FF294686
:107EA000064605F0F0052046FFF7A3FFA5F13002D6
:107EB0005542554103463146206900950122FFF79E
:107EC0008FFC206994F8E62294F8E712FFF7A4FCEF
:107ED000206902B0BDE8F041FFF7BDBC28EC00000E
:107EE000188000411480004110B54FF4AF72044671
:107EF000002103F075FE0023C4F860312046C4F869
:107F0000643110BDF8B516461D4600224FF47A7351
:107F1000C0E901230F4B044640F8143B0F46FFF71E
:107F2000E3FF04F5BE70FFF7DFFF9DF8183084F81B
:107F3000E6329DF81C3084F8E732FF23276184F88D
:107F4000E46284F8E55284F8E83284F8F832204696
:107F5000F8BD00BFC8F00000D0F86031D0F864016F
:107F6000181A48BF00F5AF70704738B5044600F5E1
:107F7000BE752846FFF7F0FF0028FAD12069BDE85A
:107F80003840FFF772BC08B51430FFF7E5FF08BDB5
:107F9000D0F86021D0F864319A4208DBD0F8603123
:107FA000D0F86421C3F5AE70013010447047D0F8AA
:107FB0006431D0F86001181A0138704708B500F52F
:107FC000BE70FFF7E5FF08BD10B504460069FFF776
:107FD00069FC28B12069FFF775FC2069FFF767FC91
:107FE0002069FFF750FC20B32069FFF76BFCD4F841
:107FF00074214FF4AF710132B2FBF1F301FB132393
:10800000D4F8782193421FBFD4F874211219107547
:10801000C4F8743194F8E832FF2B0AD004F114004C
:10802000FFF7B6FF0928DEBFD4F8EC32D4F8F4220B
:108030001A602069FFF741FCF0B104F5BE70FFF74C
:108040008BFF40B3D4F8E022D4F8DC329A421FD040
:10805000D4F8E03223444FF4AF7093F87C11D4F895
:10806000E0320133B3FBF0F200FB1233C4F8E0322C
:108070002069C9B2FFF72AFC2069FFF709FC70B13B
:108080002069FFF709FC2069BDE81040FFF7F7BB46
:108090004FF0FF31ECE72069FFF723FCECE710BD60
:1080A0002DE9F041044600690D46FFF706FC002863
:1080B00046D1294E294F4FF4AF78D4F8DC32D4F8AA
:1080C000E0120133B3FBF8F208FB12338B421ED1EE
:1080D000EFF31083DB0711D47368C3F30803002B9D
:1080E000EBD0103B9AB2002BBBBF02F00F03043B56
:1080F000DB199B19ACBF93F800331B7E2069FFF797
:10810000DCFB0028D9D02046FFF75EFFD5E7D4F886
:10811000DC220132B2FBF8F308FB1323D4F8E0228F
:1081200093421EBFD4F8DC22121982F87C512069D8
:1081300018BFC4F8DC32FFF7D0FB0120BDE8F081A6
:1081400004F5BE70FFF708FF0028B2D12069294668
:10815000FFF7BCFBF1E700BF00ED00E000E100E04D
:1081600038B5D0F87821D0F874319A4204461DD041
:10817000D0F8783103444FF4AF711D7DD0F87831D9
:108180000133B3FBF1F201FB1233C0F8783194F8FC
:10819000E832FF2B08D004F11400FFF7F9FE0A289B
:1081A000C4BFD4E9BC321A60284638BD4FF0FF3551
:1081B000EDE700002DE9F8431646614A182303FB5A
:1081C0000023804693F91640631C0F4659D05D4B3F
:1081D0001D6899468DBB442229465B4803F000FD8B
:1081E00044225A48294603F0FBFC594B594A1D606A
:1081F0004FF0010C0C230CFA03F1C2F88010BFF30E
:108200004F8FBFF36F8FD01801331C2BC2F8801132
:1082100080F800531160EED14F4B4222C3F89020FA
:1082200093F8002C42F0020203F540631A705A687A
:108230009507FCD40123C9F80030D7B1102C2ED1FA
:10824000464B5A8842F001025A80042E09D8DFE8D2
:1082500006F0031A1D2023005A78052161F302025B
:108260005A703A4B1F64012303FA04F43B4BA4B247
:108270001C613A4B1A7842F002021A705A6892074F
:10828000FCD4BDE8F8835A780421E7E75A78032143
:10829000E4E75A780221E1E75A780121DEE700217C
:1082A000404600F0E3FB2A4A2749D2F800C00125E6
:1082B000A540002308469C4529D1591C1160234A3A
:1082C00040F8235042F82370244A1078072CC8BF86
:1082D000A4F108016FF34100C7BF89000123A10089
:1082E0000023107050688007FCD49B0003F180438A
:1082F00003F520530720DA69884022EA0002DA6198
:10830000042EB0D8DFE806F009101316190051F852
:1083100004EBAE45D3D00133CDE7D869052202FA8C
:1083200001F10143D9619EE7D8690422F7E7D869D2
:108330000322F4E7D8690222F1E7D8690122EEE7C7
:1083400028EC0000902300204C230020082300206C
:108350009423002000E100E0001C004000280040C1
:108360002DE9F0410B4D0C4F0C4EDFF8348000240A
:108370003B68A34201D8BDE8F08172692B681A42BC
:1083800004D058F8243098472B68736101340435C1
:10839000EEE700BF4C23002094230020002800407B
:1083A000082300200020FFF7DBBF0120FFF7D8BF24
:1083B0000220FFF7D5BF0320FFF7D2BF0420FFF74D
:1083C000CFBF0520FFF7CCBF0620FFF7C9BF0720AE
:1083D000FFF7C6BF0820FFF7C3BF0920FFF7C0BFE4
:1083E0000A20FFF7BDBF0B20FFF7BABF0C20FFF735
:1083F000B7BF0D20FFF7B4BF0E20FFF7B1BF0F20AE
:10840000FFF7AEBF10B5044628B104F0A5FA90FB03
:10841000F4F303FB1404204610BD884210B5044653
:1084200003DA081AFFF7EEFF0444204610BDFEE70A
:10843000FEE70000194B1A481A4A834210B51DD0B6
:108440009A421DD0144619468142224611D38342D6
:1084500019D1154AD2F8883043F47003C2F8883035
:10846000BFF34F8FBFF36F8F00F0A4F800F086F8D2
:10847000FEE7126841F8042B0434E5E71946E6E705
:1084800019461A46E3E78A42E3D0084B084A00211E
:1084900001E043F8041B9342FBD3DAE7000000201D
:1084A000E0030020B0F4000000ED00E0E007002051
:1084B000EC2F002008B500F055F818B9BDE80840C9
:1084C00000F048B808BD0000014B1868704700BFB5
:1084D00098230020124A1349F0B5134D97684B6852
:1084E0002E68C3F3806390684C68D5F800C0C4F36D
:1084F0008064A3420FD166450DD187420BD35268E9
:1085000042F22220D21B504333444FF47A72534339
:1085100003EB1050F0BD664623460746E3E700BF75
:1085200010E000E000ED00E09823002038B504469C
:1085300070B1FFF7CFFF054600F017F8FFF7CAFF4D
:10854000401BB0F57A7FF7D3013C05F57A75F5D17C
:1085500038BD0000024A136801331360FFF718B9F1
:108560009823002000207047704708B500F0C4FE33
:10857000BDE80840002002F0AFBA000008B500F0E6
:1085800015F903F0C9FAFFF7EFFF0120FFF7CEFF5F
:10859000FEF7F6FEFBF788FE044CFBF743FFFFF700
:1085A000E4FF002CF9D0AFF30080F6E700000000F4
:1085B00003F0E6BA6E4A13889BB213806D4B42F209
:1085C0000E029A82DA68D107FCD56B4B1A7842F01A
:1085D00001021A705A68D207FCD440F20512DA621E
:1085E0005A689006FCD44FF4827263491A624A6852
:1085F00012F00402FBD1614B1A77614A9A6293F838
:108600002C2012F01002FAD183F820205B4B1A467E
:1086100093F82C104907FBD4197F41F00201197718
:1086200092F82C309807FBD4536A5362534B1A4686
:1086300093F82C100907FBD4982183F820101369B4
:10864000D805FCD54C4B4F4A5A635A681106FCD4E6
:108650004522C3F88420494B77225A63DA6B5207CC
:10866000FCD44FF400629A63022283F83020434B1B
:108670001A6C9007FCD51A6CD107F9D53E4A4521F2
:10868000C2F8881063229A643C4B1A6D5207FCD4DE
:108690004FF40062DA64022283F84420374B5A6DAB
:1086A0009007FCD55A6DD107F9D5334B40F206320D
:1086B0005A625A681207FCD44FF442729A625A689E
:1086C000D006FCD4304A1A632B4B1A465968490627
:1086D000FCD440F207311962536813F00403FBD154
:1086E0002A4901224A7101F58051886963F38200A9
:1086F000886172B6264B9A6062B6264AD36843F008
:108700008073D360244A136843F0010313604FF071
:108710008013224A1B6803F003019184C3F30222F1
:10872000C3F34211120142EA0122C3F382010A4358
:108730001B49A1F84820C3F38252C3F3C24112017E
:1087400042EA0122C3F302431343164AA2F8483017
:10875000154B1A6802F01F01C2F3441343EA811358
:10876000C2F3822243EA02334FF0824213857047FC
:108770000040004100140040001C00400010004078
:108780000000010406013000060304000008004058
:1087900000600041F0ED00E0001000E00020004229
:1087A000001C00430020004384008000404BF7B5CC
:1087B0001B684FF47A72B3FBF2F3013BB3F1807F95
:1087C00072D23C4A53603C4BC02183F823100720EF
:1087D000002191601060802283F82320374B5A6972
:1087E00042F470425A619A6942F4FC429A61DA6931
:1087F00042F07802DA611A6A6FEA92226FEA822204
:108800001A6203F5A0534122C3F82021C3F82421A2
:1088100003F14073009303F5806301936C460425D4
:10882000022605274FF4C05C54F8043B1A8865F310
:108830000A221A80DA8866F3C402DA801A6B1007FB
:10884000FCD4DF721A6B5206FCD4A3F804C01A6B76
:1088500012F00402FBD19A72186B10F02000FBD1C9
:1088600019B300F031F8164B4422C3F82821D3F88D
:1088700028215006FBD5134A13469168C907FCD43A
:10888000117841F0010111709A68D207FCD40022DE
:108890005A709A89022161F30B229A81DA8961F375
:1088A0000B22DA8103B0F0BDFEE70121BCE700BF77
:1088B000C801002010E000E000ED00E000080040EA
:1088C000001C0040002400432E4B1A46196BC906B9
:1088D000FCD42D490B6BDB06FCD401382A4B0A284B
:1088E0004CD8DFE800F0061B212529324B363A48E8
:1088F0003E00264BDA696FF31342DA61DA6942F01F
:108900000402DA611F4A137A6FF30303137292F8B9
:1089100008346FF3030382F8083470471B4BDA699D
:10892000012161F31342E8E7184B0221DA69F8E705
:10893000164B0321DA69F4E7144BDA69042161F379
:108940001342DA61DA690A43DBE7104B0521DA6981
:10895000E7E70E4B0621DA69E3E70C4B0721DA69FA
:10896000DFE7117A042060F3030111721A7A60F3D1
:1089700003021A727047117A0220F4E7117A032079
:10898000F1E700BF001C0043002000430018004036
:10899000182310B51F4C5843221892F908300133A0
:1089A00013D0526823560120904003290DD8DFE8E8
:1089B00001F002250D19DB0103F1824303F50043A9
:1089C0001A44022182F84010586010BDDB0103F107
:1089D000824303F500431A44062182F84010586090
:1089E0009861F2E7DB0103F1824303F500431A4487
:1089F000062182F8401058605861E6E7DB0103F178
:108A0000824303F500431A44022182F84010986023
:108A1000DBE700BF28EC0000182330B5114D5843A8
:108A20002B1893F90820013219D05C682B56D80115
:108A300000F1824303F5004301229D68A2401542E4
:108A400009D123440D1E93F8404018BF012565F35A
:108A5000820483F84040044B034409B95A6130BD95
:108A60009A61FCE728EC00000080004138B518232B
:108A7000294D03FB00F2AC1894F90830B3F1FF3F25
:108A800048D00D2907DC002919DA01314FF0FF30F9
:108A900018BF002038BDA1F10E03DBB2032B04D8B0
:108AA0000F2904D10021FFF773FF0020F2E71029FE
:108AB00001D10221F7E71129F7D10121F3E7AD56E2
:108AC0006468164BED0162082B4414F00100C9B232
:108AD0001A4410D092F8300000F00F0040EA011163
:108AE0002344C9B282F8301093F8402042F041028A
:108AF00083F84020D9E792F8305005F0F005234480
:108B0000294382F8301093F8402042F0410283F864
:108B10004020BFE71846BDE728EC00000080004178
:108B20004FF082431A7842F001021A709A78D00707
:108B3000FCD54FF082439A78D107FCD4164A198DA0
:108B40001268C2F3441060F304011985198D62F3B1
:108B50008A111985198DC2F3822262F30E311985AB
:108B6000DA7842F00302DA70DA7842F00C02DA7056
:108B70000A4A5A6200221A8106221A704FF0824372
:108B80009A789207FCD4998B9A8B0A4392B29A8373
:108B900008221A83704700BF84008000A4230020AD
:108BA000064B4FF480329A604FF400329A604FF4D3
:108BB00080229A604FF400229A60704700E100E042
:108BC000104B4FF40022C3F88820BFF34F8FBFF340
:108BD0006F8F4FF48022C3F88820BFF34F8FBFF30D
:108BE0006F8F4FF40032C3F88820BFF34F8FBFF36D
:108BF0006F8F4FF48032C3F88820BFF34F8FBFF3DD
:108C00006F8F704700E100E00B785B0609D14B786D
:108C1000052B06D14B884FF0824263F07F03DBB215
:108C20009372064B064A1A605A68082161F39B3218
:108C30005A605A686FF30D025A607047A4230020EF
:108C40009C23002070B54A7988780C7902F00702DD
:108C500000F07F0344EA0224C00900220126D51C4B
:108C600006FA05F5A54206D00132072AF7D140F2EF
:108C7000FF35AC4226D1144C00EB430504EB051440
:108C80005B01656862F31E756560CA7803F1824313
:108C900002F0030293F8001103F58074013248B921
:108CA00062F3020183F80011637A43F001036372F7
:108CB000012070BD62F3061183F80011637A43F05E
:108CC0000203F4E70020F4E7A4230020F0B501F04C
:108CD0007F056E00CF0906EBD111214809016C0117
:108CE00004F18244425004F58074014685B97AB992
:108CF00073B91C4A1078B7EBD01F09D00A604A68D4
:108D0000082060F39B324A604A6863F30D024A60B0
:108D10006D01C3F30D0329448FB94A6863F39B3295
:108D20004A604B6867F30D034B60237943F04003BF
:108D30002371E37943F00403E3710120F0BD4A6934
:108D40006FF39B324A614A6963F30D024A616379AA
:108D500043F080036371E37943F00803ECE700BF5D
:108D6000A42300209C23002008B500231A4680215C
:108D7000FFF7ACFF4FF0824301229A831A8308BDAC
:108D800001F07F035B0103F18243CA0903F580739D
:108D900014BF202210225A71704701F07F035B013B
:108DA00003F18243CA0903F5807314BF2222112202
:108DB0001A7170474FF082432DE9F74FB3F82080C6
:108DC000DFF870901FFA88F80024012707FA04F3EF
:108DD00013EA080F5FFA84FA25D0660106F182458E
:108DE00005F58075EB795FFA83FB9B070DD509EBE1
:108DF00006034AF080015A69009700231846C2F31F
:108E00000D0200F089F90223EB711BF0010F0AD06B
:108E10004E44002372680097C2F30D025146184673
:108E200000F07AF9EF710134082CCFD103B0BDE81E
:108E3000F08F00BFA42300204FF0824310B59A8B1F
:108E40001C8BA4B21440620706D504229A83032126
:108E50000122002000F03CF9E0070AD54FF08243E0
:108E6000102101229A83002099831983042100F0A4
:108E70002FF9E10609D54FF0824310229A8305218C
:108E80009A820020012200F023F9220722D54FF018
:108E900082430821112099839882174B5A68032432
:108EA00064F31E725A605A6964F31E725A61134A5F
:108EB000107013205072124A1A605A6861F39B3284
:108EC0005A605A686FF30D025A6001221146002061
:108ED00000F0FEF84FF0824494F80731DB0607D526
:108EE00007490122002000F003F9112384F807311B
:108EF000BDE81040FFF75EBFA42300200001004141
:108F00009C2300200B4B63B10B4B1B78834206D98B
:108F10000A4B1B68C0EBC00003EB80007047C01A0F
:108F2000C0B2042803D8064BC0EBC000F4E7002011
:108F3000704700BF00000000A8240020A4240020E7
:108F4000F4F0000070B53222002105460E480F4EA5
:108F500002F046FE1022FF210D4802F041FE1022D1
:108F6000FF210C4802F03CFE00F018FD00242046D2
:108F7000FFF7C8FF43682846984733780134E4B2C6
:108F80000433A342F3DA70BDA9240020A8240020F2
:108F9000AB240020BB24002073B5054614463AB923
:108FA0000378012B04D110460191FFF709FE0199C6
:108FB000281D00F012FE06462CB92B78012B02D199
:108FC0002046FFF7EDFD26B9034B1B68DB0700D5F4
:108FD00000BE304602B070BDF0ED00E0024B1878E4
:108FE000C0F38000704700BFA9240020024B18780E
:108FF000C0F3C000704700BFA924002038B5134C4F
:1090000013483222002102F0EBFD201D00F031FE5A
:10901000104B1C60104B23B11048AFF30080104B75
:1090200018600E4D00242046FFF76CFF0368984738
:109030002B780134E4B20433A342F4DA0020FFF7C2
:109040006FFD0020FFF7ACFD012038BDCC010020F2
:10905000A9240020DC24002000000000A824002017
:10906000A42400204378023B0A46032B14D8DFE8EF
:1090700003F002291820144B19786FF300011970BE
:1090800019786FF34101197019786FF38201197023
:1090900019786FF3C30119700C4B01461868FFF77C
:1090A0007BBF094B1978C9070CD5197841F0080125
:1090B000F1E705490B78DB0704D50B786FF3C303A1
:1090C0000B70E9E7704700BFA9240020DC240020D2
:1090D0001FB50023CDE901338DF804008DF805108C
:1090E00001A811460393FFF7BDFF05B05DF804FB2F
:1090F0001FB50023ADF806308DF80400062308687C
:1091000049688DF8053002AB03C3114601A8FFF78B
:10911000A9FF05B05DF804FB1FB50024CDE90144AB
:109120008DF8040007208DF805008DF8081001A8BF
:109130009DF8181003928DF80930FFF793FF04B0E3
:1091400010BD00002DE9F047DDE9085681460C46C8
:1091500090469A460027B84501DC01200CE0637870
:10916000052B04D1E37803F00303534508D00E4BDD
:109170001B68DA0702D40020BDE8F08700BEFAE7DA
:1091800021464846FFF75EFD28B9074B1B68DB0701
:10919000F1D500BEF0E7A378DA0914BF33702B7065
:1091A000237801371C44D6E7F0ED00E0FFF74ABD15
:1091B0000B4B01F07F0203EB420303EBD111203193
:1091C000887810F0010008D18B785B0706D48B7883
:1091D00043F004038B70012070470020704700BFEC
:1091E000A92400200B4B01F07F0203EB420303EBA9
:1091F000D11120318B7813F0010209D18B78C3F3A0
:1092000080005B0705D58B7862F382038B70704713
:1092100000207047A924002070B5144D01F07F068E
:1092200005EB460505EBD1142034A578ED0707D5ED
:109230000F4B1B68DA0701D4002070BD00BEFBE7AE
:10924000A57845F00105A570FFF740FD0028F4D191
:10925000A37860F30003A370A37860F38203A37084
:10926000034B1B68DB07E7D500BEE6E7A924002017
:10927000F0ED00E0054B01F07F0203EB420303EB4E
:10928000D11191F8220000F001007047A9240020BC
:1092900010B50C46FFF774FD094B04F07F0103EB9A
:1092A000410303EBD41191F8223043F0020381F81B
:1092B000223091F8223043F0010381F8223010BDB2
:1092C000A924002010B50C46FFF767FD094B04F0F8
:1092D0007F0103EB410303EBD41191F822306FF3CC
:1092E000410381F8223091F822306FF3000381F8B6
:1092F000223010BDA92400202DE9F04F89B001F0E3
:109300009DFD002800F07582DFF8E8A2B24B1C68D2
:109310002378012B02D10020FFF752FC05A9201D64
:1093200000F006FC2378012B074602D10020FFF74E
:1093300037FC002F00F05D829DF81530013B072BB4
:1093400000F28C82DFE813F0080011008102600255
:109350006B021B002E0283029DF81400FFF7F2FD42
:109360009E4B9DF818205A70D0E79DF81400FFF727
:10937000E9FD9B4B002BC9D0AFF30080C6E7974DAA
:109380009DF814402B78002043F001032B7000F06F
:109390000DFB9DF8188008F06002602A2E4606D169
:1093A000904B1B68D90740F1448100BE41E1402A3F
:1093B0000FD18D4B002B00F03C818C4808B100F0A0
:1093C000F5FA06A92046AFF300800746002F9DD18D
:1093D0002FE108F01F08B8F1010F00F07081B8F11B
:1093E000020F00F08B81B8F1000FD9D1202A14D1DF
:1093F0009DF81C300F2B00F21C811D44A878FFF74C
:1094000081FD0546002800F01481006900F0CEFAC5
:10941000EB6806A920469847D7E7002AC0D19DF8F7
:109420001930092BBCD801A252F823F0A9960000EC
:1094300099960000A193000089960000A193000076
:1094400055940000F9950000A19300006F9400006E
:109450008994000006A800F0AFFA9DF81A10204683
:10946000FFF782FC2B7843F002032B704EE72B783A
:10947000C3F380038DF8123001230DF1120206A907
:10948000204600F053FA41E72B789DF81A805F07D9
:1094900026D4B8F1000F23D008F1FF30C0B201F09C
:1094A0001DFE10B14378022B06D04E4B1B68D80727
:1094B0007FF576AF00BE73E72A78C37922F06002A9
:1094C00003F0600313432B704388C31800F10901B4
:1094D0000193019B8B4211D8454B0BB1AFF3008038
:1094E000B8F100082B7818BF4FF0010868F3820329
:1094F0002B7006A9204600F001FA07E74B780B2BEA
:1095000003BF0B788946C9184FF000094B78042B2C
:10951000CBD1019B5A1A92B24FF0000B9AF800304F
:109520005FFA8BF70433BB42BFDB3846CDE902124A
:10953000FFF7E8FCDDE902128368204698470BF14B
:10954000010BDDE902120028E8D00828ADD98242DB
:10955000ABD38A78B31893F802C0BCF1FF0FA4D143
:109560009F70B9F1000F1ED10A46002392F801C086
:10957000BCF1050F09D192F802E00EF07F0C06EB6A
:109580004C0C0CEBDE1C8CF8127092F800C063449B
:109590009BB298426244E9D89AF8003004339F4263
:1095A000014496DD81E799F8023093427FF47DAF64
:1095B00099F804C04A7994457FF477AF033399F85A
:1095C00003C03344002201325FFA82FEF445CBD956
:1095D00003F8017BF7E700BFDC240020A92400206A
:1095E00000000000F0ED00E00000000000000000BE
:1095F00000000000A8240020BDF81A309DF81A00D1
:109600001B0A013B0E2B14D8DFE803F008262C13AD
:10961000133513131313131313131E0001F05AFD04
:109620001223024606A9204600F080F900287FF4A4
:109630006DAE9DF814000021FFF7A2FB9DF8140009
:109640008021FFF79DFB61E6884B002BF1D0AFF343
:10965000008002465388E5E701F040FD02460028FD
:10966000F8D19DE6BDF81C1001F03EFD0246002831
:10967000DFD01378D6E77E4B002BDAD0AFF3008033
:1096800002460028F5D18BE6BDF81A30012BD0D167
:109690002B7843F010032BE7BDF81A30012BC8D10B
:1096A0002B786FF3041323E72B78C3F38012DB08C6
:1096B00003F002031343ADF812300223DDE69DF8F8
:1096C0001C300F2BB5D81D44A878FFF71BFC0546AE
:1096D0000028AED0006900F069F9EB6806A92046C1
:1096E000984700287FF412AE9DF8183013F06003FD
:1096F0009FD19DF819200A2A9BD1BBE69DF81C102A
:1097000011F078037FF44CAE01F07F09CD09002AF7
:1097100046D19DF81930012B2FD0032B38D0002BC8
:109720007FF43EAE06EB49032B4420330DF11202C9
:109730009B78C3F34003ADF8123006A94346204698
:1097400000F0F4F806EB49062E44B07CFFF7DAFB94
:10975000054648B1006900F029F9EB6806A92046E2
:109760009847002818BF07469DF8180010F06000C1
:109770007FF42CAE00F01AF928E6BDF81A3013B9C0
:109780002046FFF79FFD06A9204600F0B7F8D9E76D
:10979000BDF81A30002BF6D12046FFF779FDF2E72D
:1097A0001F46CFE79DF81810324B01F07F0403EB02
:1097B000440303EBD11393F822006FF3000083F806
:1097C000220093F822006FF3820083F822003CB954
:1097D000079B9DF819209DF8140000F0FBF895E513
:1097E000987CFFF78FFB38B9234B1B68DA0700D54D
:1097F00000BE09B0BDE8F08F4469079B9DF81920B1
:109800009DF81400A04781E51C4B002B3FF47EAD72
:10981000184B1878C0F30010AFF3008076E5184BB2
:10982000002B3FF473ADAFF300806FE5FFF76AFBE9
:10983000836913B19DF81400984701349AF80030F9
:10984000E0B204338342F1DA60E50024F6E7069BD8
:10985000002B3FF45BAD0798984757E5064B1B6814
:10986000DB077FF553AD00BE50E500BF00000000F0
:1098700000000000A9240020F0ED00E0000000003E
:1098800000000000054B01F07F0203EB420303EBF5
:10989000D11191F82200C0F340007047A9240020A4
:1098A00037B514490446CA89888991F90050831A4A
:1098B0009BB2402B28BF4023002D10DA904214D0D9
:1098C0001A4689680C48019302F062F90A4A019B22
:1098D0008021204603B0BDE83040FFF7F7B9904241
:1098E0004FF0000103D10022F3E78021FBE7024A99
:1098F000EFE700BFE0240020F424002030B40A4C3D
:1099000005460A4608684968234603C392F90020C1
:1099100000239A42C4E9023328461A4630BCACBF41
:1099200080211946FFF7D2B9E0240020F8B5194E7E
:109930000C46054608684968B260374603C70021EF
:10994000F181E1888B4228BF0B46B38179B143B1E5
:109950003AB9114B1B68DA0701D40020F8BD00BEEC
:10996000FBE72846FFF79CFF68B10120F6E794F972
:109970000030002B0A460B462846ACBF8021002150
:10998000FFF7A4F9F0E7044B1B68DB07E5D500BE41
:10999000E4E700BFE0240020F0ED00E002481422DC
:1099A000002102F01DB900BFE0240020014B186126
:1099B000704700BFE024002010B50246044C006848
:1099C0005168234603C30023C4E9023310BD00BF1E
:1099D000E024002070B51E462B4B1A78C909B1EB64
:1099E000D21F05461C4610D03EB1284B1B68DA0733
:1099F00001D4002070BD00BEFBE7254A0AB9012052
:109A0000F8E71946FFF700F9F9E793F90030002B62
:109A100006DBA0680028ECD01E49324602F0B8F8F8
:109A2000A268E38932443344A260E2889BB29A423E
:109A3000E38101D03F2E23D823699BB994F90030EC
:109A4000002B4FF000031A46ACBF80211946284670
:109A5000FFF73CF90028D2D10C4B1B68DB07C8D5B7
:109A600000BEC7E708492846984701460028E5D1C7
:109A70002846FFF785F980212846FFF781F9BEE7E0
:109A80002846FFF70DFFE5E7E0240020F0ED00E0B9
:109A9000098C0000F424002070B504460846E389D0
:109AA000E18826689BB215464A4301FB036102F038
:109AB0006FF8E389A28815FA83F39BB2934224BF1F
:109AC0009B1A9BB2E38163895A1B92B2628170BD7B
:109AD00070B5044683892668C0889BB21546424308
